:100000000C9437000C94AC000C94AC000C94AC0035
:100010000C94AC000C94AC000C94AC000C94AC00B0
:100020000C94AC000C94AC000C94AC000C94AC00A0
:100030000C94AC000C94AC000C94AC000C94AC0090
:100040000C94AC000C94AC000C94AC000C94AC0080
:100050000C94AC000C94AC000C94AC000C94AC0070
:100060000C94AC000C94AC0001000105800011243C
:100070001FBECFEFD8E0DEBFCDBFE8E6F0E040E046
:1000800017C0B591A59135912591059107FD0CC03B
:1000900095918591EF01F92FE82F05900D92A21708
:1000A000B307D9F7FE0104C01D92A217B307E1F709
:1000B000ED36F40731F70E9461000C945F00F8946C
:0200C000FFCF70
:1000C2008FEF8AB98FE087B984E690E090930401BC
:1000D2008093030171E063E052E046E034E02CE0FB
:1000E20098E089E078B9EFE9FFE03197F1F700C0D5
:1000F200000068B9EFE9FFE03197F1F700C00000B6
:1001020058B9EFE9FFE03197F1F700C0000048B9B4
:10011200EFE9FFE03197F1F700C0000038B9EFE9ED
:10012200FFE03197F1F700C0000028B9EFE9FFE0E6
:100132003197F1F700C0000098B9EFE9FFE031977D
:10014200F1F700C0000088B9EFE9FFE03197F1F75D
:0601520000C00000C7CF51
:040158000C94000003
:00000001FF
