:100000000C9434000C941B010C941B010C941B01E8
:100010000C941B010C941B010C941B010C941B01F0
:100020000C941B010C941B010C941B010C941B01E0
:100030000C941B010C941B010C941B010C941B01D0
:100040000C941B010C941B010C941B010C941B01C0
:100050000C941B010C941B010C941B010C941B01B0
:100060000C941B010C941B0111241FBECFEFD8E090
:10007000DEBFCDBFE8E6F0E040E017C0B591A59146
:1000800035912591059107FD0CC095918591EF0162
:10009000F92FE82F05900D92A217B307D9F7FE01AB
:1000A00004C01D92A217B307E1F7E836F40731F751
:0C00B0000E9411010C945C00F894FFCF3A
:1000BC0086E690E0F1E0E3E072E066E054E04CE0CC
:1000CC0038E029E0F8B9A1EEB4E01197F1F700C0DF
:1000DC000000E8B9A1EEB4E01197F1F700C0000000
:1000EC0078B9A1EEB4E01197F1F700C0000068B93F
:1000FC00A1EEB4E01197F1F700C0000058B9A1EEE1
:10010C00B4E01197F1F700C0000048B9A1EEB4E0DB
:10011C001197F1F700C0000038B9A1EEB4E01197C7
:10012C00F1F700C0000028B9A1EEB4E01197F1F787
:10013C0000C00000019731F6BFE926E881E0B1501C
:10014C0020408040E1F700C000000E9404019FE9BC
:10015C00A6E8B1E09150A040B040E1F700C000002B
:10016C0086E690E0F9E0E8E07CE064E056E042E00E
:10017C0033E021E0F8B9A1EEB4E01197F1F700C03B
:10018C000000E8B9A1EEB4E01197F1F700C000004F
:10019C0078B9A1EEB4E01197F1F700C0000068B98E
:1001AC00A1EEB4E01197F1F700C0000058B9A1EE30
:1001BC00B4E01197F1F700C0000048B9A1EEB4E02B
:1001CC001197F1F700C0000038B9A1EEB4E0119717
:1001DC00F1F700C0000028B9A1EEB4E01197F1F7D7
:1001EC0000C00000019731F6BFE926E881E0B1506C
:0C01FC0020408040E1F700C000000895A2
:1002080082E085B92FE38DE093E021508040904053
:0A021800E1F700C0000015B80895DA
:100222005098519852988FEF84B987B915B80E94A7
:040232005E00FDCF9E
:040236000C94000024
:02000004008278
:030000007FD9FFA6
:02000004008377
:01000000FF00
:00000001FF
