:100000000C9437000C94D7010C94D7010C94D701B1
:100010000C94D7010C94D7010C94D7010C94D70100
:100020000C94D7010C94D7010C94D7010C94D701F0
:100030000C94D7010C94D7010C94D7010C94D701E0
:100040000C94D7010C94D7010C94D7010C94D701D0
:100050000C94D7010C94D7010C94D7010C94D701C0
:100060000C94D7010C94D7010100010280001124E7
:100070001FBECFEFD8E0DEBFCDBFE8E6F0E040E046
:1000800017C0B591A59135912591059107FD0CC03B
:1000900095918591EF01F92FE82F05900D92A21708
:1000A000B307D9F7FE0104C01D92A217B307E1F709
:1000B000ED36F40731F70E946E010C945F00F8945E
:0200C000FFCF70
:1000C200EF92FF920F931F93CF93DF93E3E2F4EF4C
:1000D2003197F1F700C00000209100013091010139
:1000E200821793070CF061C0281B390B24303105AD
:1000F2000CF4C2C060E070E009E018E0DCE0C4E0AB
:10010200B6E0A2E00F2EF3E0FF2EF02DEE24E394F2
:1001120008B9E1EEF4E03197F1F700C0000018B938
:10012200E1EEF4E03197F1F700C00000D8B9E1EE5A
:10013200F4E03197F1F700C00000C8B9E1EEF4E055
:100142003197F1F700C00000B8B9E1EEF4E0319761
:10015200F1F700C00000A8B9E1EEF4E03197F1F741
:1001620000C00000F8B8E1EEF4E03197F1F700C00A
:100172000000E8B8E1EEF4E03197F1F700C00000CA
:100182006F5F7F4F4091000150910101481B590B55
:100192009A0112F42D5F3F4F359527953595279596
:1001A200621773070CF4B4CF67C0281739070CF035
:1001B20063C0AC01421B530B443051050CF45CC0CC
:1001C20040E050E001E013E0D2E0C6E0B4E0ACE091
:1001D2006894FF24F3F80F2EF9E0EF2EF02D08B902
:1001E200E1EEF4E03197F1F700C0000018B9E1EE5A
:1001F200F4E03197F1F700C00000D8B9E1EEF4E085
:100202003197F1F700C00000C8B9E1EEF4E0319790
:10021200F1F700C00000B8B9E1EEF4E03197F1F770
:1002220000C00000A8B9E1EEF4E03197F1F700C098
:100232000000F8B8E1EEF4E03197F1F700C00000F9
:10024200E8B8E1EEF4E03197F1F700C000004F5F4B
:100252005F4F2091000130910101BC01621B730BC1
:100262009B0112F42D5F3F4F3595279535952795C4
:10027200421753070CF4B3CF90930101809300010E
:10028200FFE926E841E0F15020404040E1F700C09C
:1002920000000E94CA0135990EC048990E94CA0105
:1002A2005FE78AE196E0515080409040E1F700C05C
:1002B2000000359BF2CFEFE9F6E821E0E150F04093
:1002C2002040E1F700C0000089E088B9DF91CF91BA
:0A02D2001F910F91FF90EF90089527
:1002DC008FEF87B95098519852983D9884B915B8BA
:1002EC004A9909C0499907C0489B05C080E090E035
:1002FC000E946100F5CF4A9909C0499B07C04899F3
:10030C0005C088E991E00E946100EACF4A9909C0D2
:10031C00499B07C0489B05C080E393E00E946100A5
:10032C00DFCF4A9B09C0499907C0489905C088ECA2
:10033C0094E00E946100D4CF4A9B09C0499907C040
:10034C00489B05C080E696E00E946100C9CF4A9B9D
:10035C0007C0499B05C0489B03C00E94BD01C0CF8C
:0E036C0083EC99E00197F1F700C00000B9CFD3
:10037A0081E085B92FE382E49FE0215080409040DC
:0A038A00E1F700C0000015B8089567
:1003940082E085B92FE986E891E0215080409040C1
:0A03A400E1F700C0000015B808954D
:0403AE000C940000AB
:02000004008278
:030000007FD9FFA6
:02000004008377
:01000000FF00
:00000001FF
