:100000000C9434000C946B040C946B040C946B04EF
:100010000C946B040C946B040C946B040C946B04A4
:100020000C946B040C946B040C946B040C946B0494
:100030000C946B040C946B040C946B040C946B0484
:100040000C946B040C946B040C946B040C946B0474
:100050000C946B040C946B040C946B040C946B0464
:100060000C946B040C946B0411241FBECFEFD8E0EA
:10007000DEBFCDBFE8E6F0E040E017C0B591A59146
:1000800035912591059107FD0CC095918591EF0162
:10009000F92FE82F05900D92A217B307D9F7FE01AB
:1000A00004C01D92A217B307E1F7E836F40731F751
:0C00B0000E94F7030C945C00F894FFCF52
:1000BC00BF92CF92DF92EF92FF920F931F93CF9349
:1000CC00DF932FE38DE093E0215080409040E1F7E7
:1000DC0000C000000E945E04AFE3BDE0E3E0A1506D
:1000EC00B040E040E1F700C000003599B0C089EFA6
:1000FC0090E00197F1F700C00000359BF8CFA7C046
:10010C00E8B8A1EEB4E01197F1F700C00000F8B820
:10011C00E1EEF4E03197F1F700C0000008B9A1EE70
:10012C00B4E01197F1F700C0000018B9E1EEF4E06B
:10013C003197F1F700C00000D8B9A1EEB4E01197E7
:10014C00F1F700C00000C8B9E1EEF4E03197F1F727
:10015C0000C00000B8B8A1EEB4E01197F1F700C0F0
:10016C00000028B9E1EEF4E03197F1F700C000008F
:10017C00019731F6FFE32DE083E0F1502040804001
:10018C00E1F700C000000E945E049FE3ADE0B3E025
:10019C009150A040B040E1F700C00000359908C074
:1001AC00E9EFF0E03197F1F700C00000359BF8CF94
:1001BC00F1E0CF1AD10821F086E690E029E0A0CF3B
:1001CC008AE991E0F9E0E8E07CE064E056E042E0A6
:1001DC0033E021E0F8B9A1EEB4E01197F1F700C0DB
:1001EC000000E8B9A1EEB4E01197F1F700C00000EF
:1001FC0078B9A1EEB4E01197F1F700C0000068B92E
:10020C00A1EEB4E01197F1F700C0000058B9A1EECF
:10021C00B4E01197F1F700C0000048B9A1EEB4E0CA
:10022C001197F1F700C0000038B9A1EEB4E01197B6
:10023C00F1F700C0000028B9A1EEB4E01197F1F776
:10024C0000C00000019731F689E088B912C06894AB
:10025C00CC24C2F8D12C6894BB24B3F8EE24E394DC
:10026C000F2EF3E0FF2EF02D02E016E0D4E0CCE0F0
:10027C00A3CFDF91CF911F910F91FF90EF90DF9063
:06028C00CF90BF90089521
:1002920086E690E0F1E0E3E072E066E054E04CE0F4
:1002A20038E029E0F8B9A1EEB4E01197F1F700C007
:1002B2000000E8B9A1EEB4E01197F1F700C0000028
:1002C20078B9A1EEB4E01197F1F700C0000068B967
:1002D200A1EEB4E01197F1F700C0000058B9A1EE09
:1002E200B4E01197F1F700C0000048B9A1EEB4E004
:1002F2001197F1F700C0000038B9A1EEB4E01197F0
:10030200F1F700C0000028B9A1EEB4E01197F1F7AF
:1003120000C00000019731F6BFE926E881E0B15044
:1003220020408040E1F700C000000E945E04359941
:1003320008C0A9EFB0E01197F1F700C00000359BAB
:10034200F8CFBFE926E881E0B15020408040E1F7D4
:1003520000C0000086E690E0F9E0E8E07CE064E0BE
:1003620056E042E033E021E0F8B9A1EEB4E01197A3
:10037200F1F700C00000E8B9A1EEB4E01197F1F77F
:1003820000C0000078B9A1EEB4E01197F1F700C007
:10039200000068B9A1EEB4E01197F1F700C00000C7
:1003A20058B9A1EEB4E01197F1F700C0000048B9C6
:1003B200A1EEB4E01197F1F700C0000038B9A1EE48
:1003C200B4E01197F1F700C0000028B9A1EEB4E043
:1003D2001197F1F700C00000019731F6BFE926E856
:1003E20081E0B15020408040E1F700C00000089554
:1003F2008CEC90E0F1E0E3E072E066E054E04CE087
:1004020038E029E0F8B9A1EEB4E01197F1F700C0A5
:100412000000E8B9A1EEB4E01197F1F700C00000C6
:1004220078B9A1EEB4E01197F1F700C0000068B905
:10043200A1EEB4E01197F1F700C0000058B9A1EEA7
:10044200B4E01197F1F700C0000048B9A1EEB4E0A2
:100452001197F1F700C0000038B9A1EEB4E011978E
:10046200F1F700C0000028B9A1EEB4E01197F1F74E
:1004720000C00000019731F689E088B9BFE32DE0A2
:1004820083E0B15020408040E1F700C000000E94AC
:100492005E049FE3ADE0B3E09150A040B040E1F7CD
:1004A20000C000008CEC90E0F9E0E8E07CE064E061
:1004B20056E042E033E021E0F8B9A1EEB4E0119752
:1004C200F1F700C00000E8B9A1EEB4E01197F1F72E
:1004D20000C0000078B9A1EEB4E01197F1F700C0B6
:1004E200000068B9A1EEB4E01197F1F700C0000076
:1004F20058B9A1EEB4E01197F1F700C0000048B975
:10050200A1EEB4E01197F1F700C0000038B9A1EEF6
:10051200B4E01197F1F700C0000028B9A1EEB4E0F1
:100522001197F1F700C00000019731F689E088B910
:10053200BFE32DE083E0B15020408040E1F700C0EE
:040542000000089518
:1005460083E391E0F1E0E3E072E066E054E04CE042
:1005560038E029E0F8B9A1EEB4E01197F1F700C050
:100566000000E8B9A1EEB4E01197F1F700C0000071
:1005760078B9A1EEB4E01197F1F700C0000068B9B0
:10058600A1EEB4E01197F1F700C0000058B9A1EE52
:10059600B4E01197F1F700C0000048B9A1EEB4E04D
:1005A6001197F1F700C0000038B9A1EEB4E0119739
:1005B600F1F700C0000028B9A1EEB4E01197F1F7F9
:1005C60000C00000019731F689E088B9BFE32DE04D
:1005D60083E0B15020408040E1F700C000000E9457
:1005E6005E049FE3ADE0B3E09150A040B040E1F778
:1005F60000C0000083E391E0F9E0E8E07CE064E01D
:1006060056E042E033E021E0F8B9A1EEB4E01197FC
:10061600F1F700C00000E8B9A1EEB4E01197F1F7D8
:1006260000C0000078B9A1EEB4E01197F1F700C060
:10063600000068B9A1EEB4E01197F1F700C0000020
:1006460058B9A1EEB4E01197F1F700C0000048B91F
:10065600A1EEB4E01197F1F700C0000038B9A1EEA1
:10066600B4E01197F1F700C0000028B9A1EEB4E09C
:100676001197F1F700C00000019731F689E088B9BB
:10068600BFE32DE083E0B15020408040E1F700C099
:0406960000000895C3
:10069A008AE991E0F1E0E3E072E066E054E04CE0E0
:1006AA0038E029E0F8B9A1EEB4E01197F1F700C0FB
:1006BA000000E8B9A1EEB4E01197F1F700C000001C
:1006CA0078B9A1EEB4E01197F1F700C0000068B95B
:1006DA00A1EEB4E01197F1F700C0000058B9A1EEFD
:1006EA00B4E01197F1F700C0000048B9A1EEB4E0F8
:1006FA001197F1F700C0000038B9A1EEB4E01197E4
:10070A00F1F700C0000028B9A1EEB4E01197F1F7A3
:10071A0000C00000019731F689E088B9BFE32DE0F7
:10072A0083E0B15020408040E1F700C000000E9401
:10073A005E049FE3ADE0B3E09150A040B040E1F722
:10074A0000C000008AE991E0F9E0E8E07CE064E0BA
:10075A0056E042E033E021E0F8B9A1EEB4E01197A7
:10076A00F1F700C00000E8B9A1EEB4E01197F1F783
:10077A0000C0000078B9A1EEB4E01197F1F700C00B
:10078A00000068B9A1EEB4E01197F1F700C00000CB
:10079A0058B9A1EEB4E01197F1F700C0000048B9CA
:1007AA00A1EEB4E01197F1F700C0000038B9A1EE4C
:1007BA00B4E01197F1F700C0000028B9A1EEB4E047
:1007CA001197F1F700C00000019731F689E088B966
:1007DA00BFE32DE083E0B15020408040E1F700C044
:0407EA00000008956E
:1007EE008FEF87B95098519852983D9884B915B8A3
:1007FE004A9905C0499903C048990E9451044A99E3
:10080E0005C0499B03C0489B0E945E004A9905C0E3
:10081E00499B03C048990E9432044A9B05C04999DE
:10082E0003C0489B0E9449014A9B05C0499903C0D9
:10083E0048990E94F9014A9B05C0499903C04899FD
:10084E000E94A3024A9BD4CF499BD2CF489BD0CFC4
:06085E000E944D03CDCF06
:100864002FE38DE093E0215080409040E1F700C0F9
:1008740000000E945E04359908C089EF90E001975A
:10088400F1F700C00000359BF8CF9FE32DE083E033
:0E089400915020408040E1F700C00000089520
:1008A20081E085B92FEF84E39CE0215080409040A5
:0A08B200E1F700C0000015B808953A
:1008BC0082E085B92FE38DE093E021508040904099
:0A08CC00E1F700C0000015B8089520
:0408D6000C9400007E
:02000004008278
:030000007FD9FFA6
:02000004008377
:01000000FF00
:00000001FF
