:100000000C9434000C94B1030C94B1030C94B10320
:100010000C94B1030C94B1030C94B1030C94B10390
:100020000C94B1030C94B1030C94B1030C94B10380
:100030000C94B1030C94B1030C94B1030C94B10370
:100040000C94B1030C94B1030C94B1030C94B10360
:100050000C94B1030C94B1030C94B1030C94B10350
:100060000C94B1030C94B10311241FBECFEFD8E060
:10007000DEBFCDBFE8E6F0E040E017C0B591A59146
:1000800035912591059107FD0CC095918591EF0162
:10009000F92FE82F05900D92A217B307D9F7FE01AB
:1000A00004C01D92A217B307E1F7E836F40731F751
:0C00B0000E9449030C945C00F894FFCF00
:1000BC0082E393E0F1E0E3E072E066E054E04CE0D0
:1000CC0038E029E0F8B9A1EEB4E01197F1F700C0DF
:1000DC000000E8B9A1EEB4E01197F1F700C0000000
:1000EC0078B9A1EEB4E01197F1F700C0000068B93F
:1000FC00A1EEB4E01197F1F700C0000058B9A1EEE1
:10010C00B4E01197F1F700C0000048B9A1EEB4E0DB
:10011C001197F1F700C0000038B9A1EEB4E01197C7
:10012C00F1F700C0000028B9A1EEB4E01197F1F787
:10013C0000C00000019731F689E088B9BFE32DE0DB
:10014C0083E0B15020408040E1F700C000000E94E5
:10015C00A6039FE3ADE0B3E09150A040B040E1F7BF
:10016C0000C0000082E393E0F9E0E8E07CE064E0AA
:10017C0056E042E033E021E0F8B9A1EEB4E011978B
:10018C00F1F700C00000E8B9A1EEB4E01197F1F767
:10019C0000C0000078B9A1EEB4E01197F1F700C0EF
:1001AC00000068B9A1EEB4E01197F1F700C00000AF
:1001BC0058B9A1EEB4E01197F1F700C0000048B9AE
:1001CC00A1EEB4E01197F1F700C0000038B9A1EE30
:1001DC00B4E01197F1F700C0000028B9A1EEB4E02B
:1001EC001197F1F700C00000019731F689E088B94A
:1001FC00BFE32DE083E0B15020408040E1F700C028
:04020C000000089551
:100210008BEC94E0F1E0E3E072E066E054E04CE067
:1002200038E029E0F8B9A1EEB4E01197F1F700C089
:100230000000E8B9A1EEB4E01197F1F700C00000AA
:1002400078B9A1EEB4E01197F1F700C0000068B9E9
:10025000A1EEB4E01197F1F700C0000058B9A1EE8B
:10026000B4E01197F1F700C0000048B9A1EEB4E086
:100270001197F1F700C0000038B9A1EEB4E0119772
:10028000F1F700C0000028B9A1EEB4E01197F1F732
:1002900000C00000019731F689E088B9BFE32DE086
:1002A00083E0B15020408040E1F700C000000E9490
:1002B000A6039FE3ADE0B3E09150A040B040E1F76A
:1002C00000C000008BEC94E0F9E0E8E07CE064E042
:1002D00056E042E033E021E0F8B9A1EEB4E0119736
:1002E000F1F700C00000E8B9A1EEB4E01197F1F712
:1002F00000C0000078B9A1EEB4E01197F1F700C09A
:10030000000068B9A1EEB4E01197F1F700C0000059
:1003100058B9A1EEB4E01197F1F700C0000048B958
:10032000A1EEB4E01197F1F700C0000038B9A1EEDA
:10033000B4E01197F1F700C0000028B9A1EEB4E0D5
:100340001197F1F700C00000019731F689E088B9F4
:10035000BFE32DE083E0B15020408040E1F700C0D2
:0403600000000895FC
:1003640087E696E0F1E0E3E072E066E054E04CE01A
:1003740038E029E0F8B9A1EEB4E01197F1F700C034
:100384000000E8B9A1EEB4E01197F1F700C0000055
:1003940078B9A1EEB4E01197F1F700C0000068B994
:1003A400A1EEB4E01197F1F700C0000058B9A1EE36
:1003B400B4E01197F1F700C0000048B9A1EEB4E031
:1003C4001197F1F700C0000038B9A1EEB4E011971D
:1003D400F1F700C0000028B9A1EEB4E01197F1F7DD
:1003E40000C00000019731F689E088B9BFE32DE031
:1003F40083E0B15020408040E1F700C000000E943B
:10040400A6039FE3ADE0B3E09150A040B040E1F714
:1004140000C0000087E696E0F9E0E8E07CE064E0F4
:1004240056E042E033E021E0F8B9A1EEB4E01197E0
:10043400F1F700C00000E8B9A1EEB4E01197F1F7BC
:1004440000C0000078B9A1EEB4E01197F1F700C044
:10045400000068B9A1EEB4E01197F1F700C0000004
:1004640058B9A1EEB4E01197F1F700C0000048B903
:10047400A1EEB4E01197F1F700C0000038B9A1EE85
:10048400B4E01197F1F700C0000028B9A1EEB4E080
:100494001197F1F700C00000019731F689E088B99F
:1004A400BFE32DE083E0B15020408040E1F700C07D
:0404B40000000895A7
:1004B80089E991E0F1E0E3E072E066E054E04CE0C5
:1004C80038E029E0F8B9A1EEB4E01197F1F700C0DF
:1004D8000000E8B9A1EEB4E01197F1F700C0000000
:1004E80078B9A1EEB4E01197F1F700C0000068B93F
:1004F800A1EEB4E01197F1F700C0000058B9A1EEE1
:10050800B4E01197F1F700C0000048B9A1EEB4E0DB
:100518001197F1F700C0000038B9A1EEB4E01197C7
:10052800F1F700C0000028B9A1EEB4E01197F1F787
:1005380000C00000019731F6BFE926E881E0B1501C
:1005480020408040E1F700C000000E94A6039FE918
:10055800A6E8B1E09150A040B040E1F700C000002B
:1005680089E991E0F9E0E8E07CE064E056E042E007
:1005780033E021E0F8B9A1EEB4E01197F1F700C03B
:100588000000E8B9A1EEB4E01197F1F700C000004F
:1005980078B9A1EEB4E01197F1F700C0000068B98E
:1005A800A1EEB4E01197F1F700C0000058B9A1EE30
:1005B800B4E01197F1F700C0000048B9A1EEB4E02B
:1005C8001197F1F700C0000038B9A1EEB4E0119717
:1005D800F1F700C0000028B9A1EEB4E01197F1F7D7
:1005E80000C00000019731F6BFE926E881E0B1506C
:0C05F80020408040E1F700C000000895A2
:100604008DEF97E0F1E0E3E072E066E054E04CE067
:1006140038E029E0F8B9A1EEB4E01197F1F700C091
:100624000000E8B9A1EEB4E01197F1F700C00000B2
:1006340078B9A1EEB4E01197F1F700C0000068B9F1
:10064400A1EEB4E01197F1F700C0000058B9A1EE93
:10065400B4E01197F1F700C0000048B9A1EEB4E08E
:100664001197F1F700C0000038B9A1EEB4E011977A
:10067400F1F700C0000028B9A1EEB4E01197F1F73A
:0E06840000C00000019731F689E088B90895A2
:100692005098519852988FE084B98FEF87B9489B50
:1006A20005C0499903C04A9B0E949803489905C016
:1006B200499B03C04A9B0E940203489B05C0499B79
:1006C20003C04A9B0E948303489905C0499903C00D
:1006D2004A990E945C02489905C0499903C04A9907
:1006E2000E945E00489905C0499B03C04A990E9436
:1006F2000801489BD4CF499BD2CF4A9BD0CF0E94BE
:04070200B201CDCFA4
:100706002FE38DE093E0215080409040E1F700C058
:1007160000000E94A6032FE38DE093E02150804065
:0A0726009040E1F700C000000895C4
:10073000299A2FEF84E39CE0215080409040E1F71C
:0C07400000C0000085B18D6F85B90895E0
:10074C00289A87EA91E60197F1F700C0000085B17D
:06075C008E6F85B90895BF
:040762000C940000F3
:02000004008278
:030000007FD9FFA6
:02000004008377
:01000000FF00
:00000001FF
