:100000000C9437000C94D5000C94D5000C94D500BA
:100010000C94D5000C94D5000C94D5000C94D5000C
:100020000C94D5000C94D5000C94D5000C94D500FC
:100030000C94D5000C94D5000C94D5000C94D500EC
:100040000C94D5000C94D5000C94D5000C94D500DC
:100050000C94D5000C94D5000C94D5000C94D500CC
:100060000C94D5000C94D5000100010580001124EA
:100070001FBECFEFD8E0DEBFCDBFE8E6F0E040E046
:1000800017C0B591A59135912591059107FD0CC03B
:1000900095918591EF01F92FE82F05900D92A21708
:1000A000B307D9F7FE0104C01D92A217B307E1F709
:1000B000ED36F40731F70E9461000C945F00F8946C
:0200C000FFCF70
:1000C2008FEF8AB98FE087B984E690E090930401BC
:1000D200809303011BB880E092E0F1E0E3E072E07C
:1000E20066E054E04CE038E029E0F8B9A1EEB4E073
:1000F2001197F1F700C00000E8B9A1EEB4E0119742
:10010200F1F700C0000078B9A1EEB4E01197F1F761
:1001120000C0000068B9A1EEB4E01197F1F700C089
:10012200000058B9A1EEB4E01197F1F700C0000049
:1001320048B9A1EEB4E01197F1F700C0000038B958
:10014200A1EEB4E01197F1F700C0000028B9A1EECA
:10015200B4E01197F1F700C00000019731F689E091
:1001620088B9BFE32DE083E0B15020408040E1F741
:1001720000C0000081E08BB99FEFA4E3BCE0915086
:10018200A040B040E1F700C0000082E08BB92FEF41
:1001920084E39CE0215080409040E1F700C00000E1
:0801A20083E08BB91BB808953E
:0401AA000C940000B1
:02000004008278
:030000007FD9FFA6
:02000004008377
:01000000FF00
:00000001FF
